{
  "_format": "hh-sol-artifact-1",
  "contractName": "OptimusToken",
  "sourceName": "contracts/supply.sol",
  "abi": [
    {
      "inputs": [
        {
          "internalType": "contract IBEP20",
          "name": "_token",
          "type": "address"
        }
      ],
      "stateMutability": "nonpayable",
      "type": "constructor"
    },
    {
      "inputs": [
        {
          "internalType": "uint256",
          "name": "amount",
          "type": "uint256"
        }
      ],
      "name": "mintowner",
      "outputs": [
        {
          "internalType": "bool",
          "name": "",
          "type": "bool"
        }
      ],
      "stateMutability": "nonpayable",
      "type": "function"
    },
    {
      "inputs": [],
      "name": "token",
      "outputs": [
        {
          "internalType": "contract IBEP20",
          "name": "",
          "type": "address"
        }
      ],
      "stateMutability": "view",
      "type": "function"
    }
  ],
  "bytecode": "0x608060405234801561001057600080fd5b5060405161043d38038061043d8339818101604052810190610032919061008d565b806000806101000a81548173ffffffffffffffffffffffffffffffffffffffff021916908373ffffffffffffffffffffffffffffffffffffffff16021790555050610111565b600081519050610087816100fa565b92915050565b60006020828403121561009f57600080fd5b60006100ad84828501610078565b91505092915050565b60006100c1826100da565b9050919050565b60006100d3826100b6565b9050919050565b600073ffffffffffffffffffffffffffffffffffffffff82169050919050565b610103816100c8565b811461010e57600080fd5b50565b61031d806101206000396000f3fe608060405234801561001057600080fd5b50600436106100365760003560e01c8063fbea75691461003b578063fc0c546a1461006b575b600080fd5b610055600480360381019061005091906101b8565b610089565b604051610062919061020e565b60405180910390f35b610073610141565b6040516100809190610229565b60405180910390f35b60008060009054906101000a900473ffffffffffffffffffffffffffffffffffffffff1673ffffffffffffffffffffffffffffffffffffffff1663a0712d68836040518263ffffffff1660e01b81526004016100e59190610244565b602060405180830381600087803b1580156100ff57600080fd5b505af1158015610113573d6000803e3d6000fd5b505050506040513d601f19601f82011682018060405250810190610137919061018f565b5060019050919050565b60008054906101000a900473ffffffffffffffffffffffffffffffffffffffff1681565b600081519050610174816102b9565b92915050565b600081359050610189816102d0565b92915050565b6000602082840312156101a157600080fd5b60006101af84828501610165565b91505092915050565b6000602082840312156101ca57600080fd5b60006101d88482850161017a565b91505092915050565b6101ea8161025f565b82525050565b6101f981610295565b82525050565b6102088161028b565b82525050565b600060208201905061022360008301846101e1565b92915050565b600060208201905061023e60008301846101f0565b92915050565b600060208201905061025960008301846101ff565b92915050565b60008115159050919050565b600073ffffffffffffffffffffffffffffffffffffffff82169050919050565b6000819050919050565b60006102a0826102a7565b9050919050565b60006102b28261026b565b9050919050565b6102c28161025f565b81146102cd57600080fd5b50565b6102d98161028b565b81146102e457600080fd5b5056fea264697066735822122020562fbd033b147702f762bc5edc7a3fd24199147f9f3d3f569ac295b200094d64736f6c63430008000033",
  "linkReferences": {},
  "deployedLinkReferences": {}
}